S01800004763634170706C69636174696F6E32342E7372656325
S113000019C0CDC027C026C025C024C023C022C02B
S113001021C020C01FC055C01DC01CC01BC01AC0B9
S113002019C018C017C016C015C05DC013C012C0D7
S113003011C010C011241FBECFEFD4E0DEBFCDBF6E
S113004021E0A0E0B1E001C01D92A830B207E1F7C1
S113005071D174C1D5CF84B18B6884B98AB18B6FE7
S11300608AB952985B9A299AECE7F0E0808180661D
S11300708083EAE7F0E080818B68808384B5816ABD
S113008084BD85B5826085BD17BC18BCE0E8F0E08E
S113009080818083E1E8F0E080818D60808382E06C
S11300A080936F0087EE91E090938900809388009D
S11300B0E9E6F0E0808181608083E89AE09A7894B0
S11300C008951F920F920FB60F9211248F939F934E
S11300D095B181E0892785B99F918F910F900FBECB
S11300E00F901F9018951F920F920FB60F92112424
S11300F08F939F93EF93FF9380917C00823609F155
S113010028F4803641F0813689F03BC0833621F1F2
S1130110843669F136C08091790090E090930101B2
S11301208093000181E680937C002BC0809179004C
S113013090E0909303018093020182E680937C0017
S113014020C08091790090E0909305018093040190
S113015083E680937C0015C08091790090E09093B1
S113016007018093060184E680937C000AC0809195
S1130170790090E0909309018093080180E68093D0
S11301807C00EAE7F0E0808180648083FF91EF9156
S11301909F918F910F900FBE0F901F9018951F92F3
S11301A00F920FB60F9211248F939F9387E99AE3CE
S11301B00197F1F700C000009F918F910F900FBE3F
S11301C00F901F9018954A9BFECFE0EBF0E08081E2
S11301D08083E1EBF0E0808181608083E2EBF0E0FA
S11301E0808180834A9B03C080814A99FDCF80919E
S11301F0B2001092B10090E09695879508952F9AD9
S113020083E08A95F1F700002F980895EAE7F0E07B
S1130210808180648083808186FDFDCF8091080188
S1130220909109010895EBDFCEDF0A9710F4589AF4
S113023001C0589880910001909101018138910585
S1130240ECF0209102013091030120383105B4F41F
S11302502091040130910501213831057CF0209171
S11302600601309107012038310544F45B9A5C980B
S1130270299A5F9886E987BD88BD089580389105DD
S11302800CF057C0809102019091030181389105CF
S113029044F12091040130910501213831050CF419
S11302A048C0209106013091070120383105F4F54A
S11302B034EB28ECE0E0F1E05B9A5C985F9A2998D3
S11302C037BD28BD80819181803891052CF48281CD
S11302D093818138910584F75B9A5C98299A5F9899
S11302E00895803891052CF58091040190910501C1
S11302F081389105F4F080910601909107018138CD
S11303009105BCF038EC24EBE0E0F1E0299A5F9829
S11303105C9A5B9837BD28BD8081918180389105B6
S1130320ACF35B9A5C98299A5F980895803891059C
S113033014F3089590DE6ADF76DFFDCFF894FFCFE3
S9030000FC
